{
    "abi": [
        {
            "type": "function",
            "name": "EmitEvent",
            "inputs": [],
            "outputs": [],
            "stateMutability": "nonpayable"
        },
        {
            "type": "event",
            "name": "TestEvent",
            "inputs": [
                {
                    "name": "num",
                    "type": "uint256",
                    "indexed": false,
                    "internalType": "uint256"
                }
            ],
            "anonymous": false
        }
    ],
    "bytecode": {
        "object": "0x6080604052348015600e575f5ffd5b50609e80601a5f395ff3fe6080604052348015600e575f5ffd5b50600436106026575f3560e01c80635278c0fa14602a575b5f5ffd5b60306032565b005b604051600181527f1440c4dd67b4344ea1905ec0318995133b550f168b4ee959a0da6b503d7d24149060200160405180910390a156fea2646970667358221220e13307f44c6d0f61719e240b34e44df1e9e2beab22509a2443a494f0294bda3964736f6c634300081c0033",
        "linkReferences": {}
    },
    "methodIdentifiers": {
        "EmitEvent()": "5278c0fa"
    },
    "id": 0
}