{
  "_format": "hh-sol-artifact-1",
  "contractName": "TestContract",
  "sourceName": "contracts/Test.sol",
  "abi": [
    {
      "anonymous": false,
      "inputs": [
        {
          "indexed": true,
          "internalType": "address",
          "name": "from",
          "type": "address"
        },
        {
          "indexed": false,
          "internalType": "uint256",
          "name": "amount",
          "type": "uint256"
        }
      ],
      "name": "TransferReceived",
      "type": "event"
    },
    {
      "anonymous": false,
      "inputs": [
        {
          "indexed": false,
          "internalType": "uint256",
          "name": "newValue",
          "type": "uint256"
        }
      ],
      "name": "ValueChanged",
      "type": "event"
    },
    {
      "inputs": [
        {
          "internalType": "address",
          "name": "_contract",
          "type": "address"
        },
        {
          "internalType": "bytes",
          "name": "_data",
          "type": "bytes"
        }
      ],
      "name": "delegateCallTest",
      "outputs": [
        {
          "internalType": "bytes",
          "name": "",
          "type": "bytes"
        }
      ],
      "stateMutability": "nonpayable",
      "type": "function"
    },
    {
      "inputs": [],
      "name": "deployedContract",
      "outputs": [
        {
          "internalType": "address",
          "name": "",
          "type": "address"
        }
      ],
      "stateMutability": "view",
      "type": "function"
    },
    {
      "inputs": [],
      "name": "getValue",
      "outputs": [
        {
          "internalType": "uint256",
          "name": "",
          "type": "uint256"
        }
      ],
      "stateMutability": "view",
      "type": "function"
    },
    {
      "inputs": [
        {
          "internalType": "uint256",
          "name": "_value",
          "type": "uint256"
        }
      ],
      "name": "setValue",
      "outputs": [],
      "stateMutability": "nonpayable",
      "type": "function"
    },
    {
      "inputs": [
        {
          "internalType": "address payable",
          "name": "_finalDestination",
          "type": "address"
        }
      ],
      "name": "transferThroughContract",
      "outputs": [],
      "stateMutability": "payable",
      "type": "function"
    },
    {
      "inputs": [
        {
          "internalType": "address payable",
          "name": "_to",
          "type": "address"
        }
      ],
      "name": "transferToAddress",
      "outputs": [],
      "stateMutability": "payable",
      "type": "function"
    },
    {
      "inputs": [],
      "name": "value",
      "outputs": [
        {
          "internalType": "uint256",
          "name": "",
          "type": "uint256"
        }
      ],
      "stateMutability": "view",
      "type": "function"
    },
    {
      "stateMutability": "payable",
      "type": "receive"
    }
  ],
  "bytecode": "0x6080604052348015600f57600080fd5b506108dc8061001f6000396000f3fe6080604052600436106100745760003560e01c8063552410771161004e578063552410771461016157806371d2b9871461018a578063735f6eb4146101a6578063ae242cdf146101c2576100c9565b806320965255146100ce5780633fa4f245146100f957806348ddbb9814610124576100c9565b366100c9573373ffffffffffffffffffffffffffffffffffffffff167ff1b03f708b9c39f453fe3f0cef84164c7d6f7df836df0796e1e9c2bce6ee397e346040516100bf9190610418565b60405180910390a2005b600080fd5b3480156100da57600080fd5b506100e36101ed565b6040516100f09190610418565b60405180910390f35b34801561010557600080fd5b5061010e6101f6565b60405161011b9190610418565b60405180910390f35b34801561013057600080fd5b5061014b600480360381019061014691906105eb565b6101fc565b60405161015891906106c6565b60405180910390f35b34801561016d57600080fd5b5061018860048036038101906101839190610714565b6102b6565b005b6101a4600480360381019061019f919061077f565b6102f7565b005b6101c060048036038101906101bb919061077f565b610341565b005b3480156101ce57600080fd5b506101d76103d9565b6040516101e491906107bb565b60405180910390f35b60008054905090565b60005481565b60606000808473ffffffffffffffffffffffffffffffffffffffff16846040516102269190610812565b600060405180830381855af49150503d8060008114610261576040519150601f19603f3d011682016040523d82523d6000602084013e610266565b606091505b5091509150816102ab576040517f08c379a00000000000000000000000000000000000000000000000000000000081526004016102a290610886565b60405180910390fd5b809250505092915050565b806000819055507f93fe6d397c74fdf1402a8b72e47b68512f0510d7b98a4bc4cbdf6ac7108b3c59816040516102ec9190610418565b60405180910390a150565b8073ffffffffffffffffffffffffffffffffffffffff166108fc349081150290604051600060405180830381858888f1935050505015801561033d573d6000803e3d6000fd5b5050565b3373ffffffffffffffffffffffffffffffffffffffff167ff1b03f708b9c39f453fe3f0cef84164c7d6f7df836df0796e1e9c2bce6ee397e346040516103879190610418565b60405180910390a28073ffffffffffffffffffffffffffffffffffffffff166108fc349081150290604051600060405180830381858888f193505050501580156103d5573d6000803e3d6000fd5b5050565b600160009054906101000a900473ffffffffffffffffffffffffffffffffffffffff1681565b6000819050919050565b610412816103ff565b82525050565b600060208201905061042d6000830184610409565b92915050565b6000604051905090565b600080fd5b600080fd5b600073ffffffffffffffffffffffffffffffffffffffff82169050919050565b600061047282610447565b9050919050565b61048281610467565b811461048d57600080fd5b50565b60008135905061049f81610479565b92915050565b600080fd5b600080fd5b6000601f19601f8301169050919050565b7f4e487b7100000000000000000000000000000000000000000000000000000000600052604160045260246000fd5b6104f8826104af565b810181811067ffffffffffffffff82111715610517576105166104c0565b5b80604052505050565b600061052a610433565b905061053682826104ef565b919050565b600067ffffffffffffffff821115610556576105556104c0565b5b61055f826104af565b9050602081019050919050565b82818337600083830152505050565b600061058e6105898461053b565b610520565b9050828152602081018484840111156105aa576105a96104aa565b5b6105b584828561056c565b509392505050565b600082601f8301126105d2576105d16104a5565b5b81356105e284826020860161057b565b91505092915050565b600080604083850312156106025761060161043d565b5b600061061085828601610490565b925050602083013567ffffffffffffffff81111561063157610630610442565b5b61063d858286016105bd565b9150509250929050565b600081519050919050565b600082825260208201905092915050565b60005b83811015610681578082015181840152602081019050610666565b60008484015250505050565b600061069882610647565b6106a28185610652565b93506106b2818560208601610663565b6106bb816104af565b840191505092915050565b600060208201905081810360008301526106e0818461068d565b905092915050565b6106f1816103ff565b81146106fc57600080fd5b50565b60008135905061070e816106e8565b92915050565b60006020828403121561072a5761072961043d565b5b6000610738848285016106ff565b91505092915050565b600061074c82610447565b9050919050565b61075c81610741565b811461076757600080fd5b50565b60008135905061077981610753565b92915050565b6000602082840312156107955761079461043d565b5b60006107a38482850161076a565b91505092915050565b6107b581610467565b82525050565b60006020820190506107d060008301846107ac565b92915050565b600081905092915050565b60006107ec82610647565b6107f681856107d6565b9350610806818560208601610663565b80840191505092915050565b600061081e82846107e1565b915081905092915050565b600082825260208201905092915050565b7f44656c65676174652063616c6c206661696c6564000000000000000000000000600082015250565b6000610870601483610829565b915061087b8261083a565b602082019050919050565b6000602082019050818103600083015261089f81610863565b905091905056fea2646970667358221220bee683637d83b29d2bdebbfc5b6feb48b56f3027e0c0f46d24274fb25ef44a3064736f6c634300081b0033",
  "linkReferences": {},
  "deployedLinkReferences": {}
}